:100000000C945D000C9485000C9485000C94850084
:100010000C9485000C9485000C9485000C9485004C
:100020000C9485000C9485000C9485000C9485003C
:100030000C9485000C9485000C9485000C9485002C
:100040000C94C4030C9485000C9492030C946C03E0
:100050000C9485000C9485000C9485000C9485000C
:100060000C9485000C94850000000008000201003B
:100070000003040700000000000000000000000072
:10008000250028002B0000000000240027002A0083
:10009000040404040404040402020202020203032E
:1000A0000303030301020408102040800102040836
:1000B00010200102040810200E0411241FBECFEFEF
:1000C000D8E0DEBFCDBF22E0AEE3B1E001C01D92BB
:1000D000A130B207E1F711E0A0E0B1E0E0E4FFE019
:1000E00002C005900D92AE33B107D9F710E0CDE50F
:1000F000D0E004C02197FE010E94A605CC35D107AF
:10010000C9F70E9458040C949E070C94000090E0DC
:10011000FC01EC55FF4F249180579F4FFC018491C7
:10012000882399F090E0880F991FFC01EA57FF4F50
:10013000A591B491FC01E458FF4F859194918FB73C
:10014000F894EC91E22BEC938FBF0895AF92BF929D
:10015000CF92DF92EF92FF920F931F93CF93DF9393
:100160006C017B018B01040F151FEB015E01AE18C2
:10017000BF08C017D10759F06991D601ED91FC91E4
:100180000190F081E02DC6010995892B79F7C50111
:10019000DF91CF911F910F91FF90EF90DF90CF9063
:1001A000BF90AF900895FC01538D448D252F30E012
:1001B000842F90E0821B930B541710F0CF96089574
:1001C00001970895FC01918D828D981761F0A28DA1
:1001D000AE0FBF2FB11D5D968C91928D9F5F9F7367
:1001E000928F90E008958FEF9FEF0895FC01918D1D
:1001F000828D981731F0828DE80FF11D858D90E08A
:1002000008958FEF9FEF0895FC01918D228D892F26
:1002100090E0805C9F4F821B91098F73992708950E
:1002200088E491E00E94040121E0892B09F420E098
:10023000822F089580E090E0892B29F00E94100120
:1002400081110C9400000895FC01A48DA80FB92F12
:10025000B11DA35ABF4F2C91848D90E001968F73EE
:100260009927848FA689B7892C93A089B1898C910D
:10027000837080648C93938D848D981306C002885C
:10028000F389E02D80818F7D80830895EF92FF9226
:100290000F931F93CF93DF93EC0181E0888F9B8DA9
:1002A0008C8D98131AC0E889F989808185FF15C063
:1002B0009FB7F894EE89FF896083E889F989808186
:1002C0008370806480839FBF81E090E0DF91CF9155
:1002D0001F910F91FF90EF900895F62E0B8D10E077
:1002E0000F5F1F4F0F731127E02E8C8D8E110CC0E6
:1002F0000FB607FCFACFE889F989808185FFF5CF31
:10030000CE010E942401F1CFEB8DEC0FFD2FF11DEA
:10031000E35AFF4FF0829FB7F8940B8FEA89FB896D
:1003200080818062CFCFCF93DF93EC01888D8823CB
:10033000B9F0AA89BB89E889F9898C9185FD03C048
:10034000808186FD0DC00FB607FCF7CF8C9185FF2D
:10035000F2CF808185FFEDCFCE010E942401E9CF4D
:10036000DF91CF91089590E0FC01E859FF4F24916F
:10037000FC01EC55FF4F3491FC01E057FF4FE49135
:10038000EE23C9F0222339F0233001F1A8F4213003
:1003900019F1223029F1F0E0EE0FFF1FE458FF4F72
:1003A000A591B4918FB7F894EC91611126C0309566
:1003B0003E233C938FBF08952730A9F02830C9F021
:1003C000243049F7809180008F7D03C080918000A8
:1003D0008F7780938000DFCF84B58F7784BDDBCFAC
:1003E00084B58F7DFBCF8091B0008F778093B00074
:1003F000D2CF8091B0008F7DF9CF3E2BDACF3FB7BF
:10040000F8948091430190914401A0914501B091ED
:10041000460126B5A89B05C02F3F19F00196A11DE6
:10042000B11D3FBFBA2FA92F982F8827BC01CD013E
:10043000620F711D811D911D42E0660F771F881F9D
:10044000991F4A95D1F70895089590E080E00895A6
:10045000CF93DF93EC0160E08E810E94B30161E0F5
:100460008E810E94B30160E08E810E94B3018BE80F
:1004700091E00197F1F7DF91CF910895CF92DF924C
:10048000EF92FF920F931F93CF93DF936C017C0148
:1004900087E0E80EF11CD0E0C0E0062F10E0B801C4
:1004A0000C2E02C0759567950A94E2F76170F7010A
:1004B00081917F010E94B3012196C430D10579F763
:1004C000C601DF91CF911F910F91FF90EF90DF90C8
:1004D000CF900C942802CF92DF92EF92FF920F936D
:1004E0001F93CF93DF93EC01F62E642F8C810E9433
:1004F000B3018D818F3F19F060E00E94B3010F2D91
:1005000010E08F8584FF25C06E0187E0C80ED11CE6
:10051000F12CE12CB8010E2C02C0759567950A9458
:10052000E2F76170F60181916F010E94B301FFEF64
:10053000EF1AFF0A88E0E816F10461F7CE01DF91B7
:10054000CF911F910F91FF90EF90DF90CF900C947F
:100550002802B80184E0759567958A95E1F7CE0188
:100560000E943E026F2DCE01DF91CF911F910F911E
:10057000FF90EF90DF90CF900C943E0240E0682F08
:1005800085EE91E00C946B02CF93DF93823029F4D7
:100590009091F40198609093F4018093F801109287
:1005A000F90180E48093FA0180E18093FB0180E50A
:1005B0008093FC018091E9010E9487008091EA010B
:1005C0008F3F11F00E9487008091EB010E9487000D
:1005D000C5EED1E09E01255E31408091F40184FD9D
:1005E0000AC084E090E02196281739073CF48E81F8
:1005F0000E948700EFCF88E090E0F5CF8BE39DE08D
:100600000197F1F760E08091E9010E94B30160E099
:100610008091EB010E94B3018091EA018F3F19F0B4
:1006200060E00E94B3018091F40184FD39C063E071
:1006300085EE91E00E943E02CBE4D6E4CE01019724
:10064000F1F763E085EE91E00E943E022197F1F719
:1006500063E085EE91E00E943E0283E592E001971F
:10066000F1F762E085EE91E00E943E028091F40194
:1006700080620E94BE0284E08093F5018CE00E94BB
:10068000BE0281E00E94BE028BE39FE10197F1F779
:1006900082E08093F60186E0DF91CF910C94BE0258
:1006A00080620E94BE028BE496E40197F1F780918C
:1006B000F40180620E94BE0283E592E00197F1F7A7
:1006C0008091F40180620E94BE02D0CF41E00E947E
:1006D0006B0281E090E008951F920F920FB60F9287
:1006E00011242F933F934F935F936F937F938F9337
:1006F0009F93AF93BF93EF93FF9388E491E00E94A1
:100700002401FF91EF91BF91AF919F918F917F91C4
:100710006F915F914F913F912F910F900FBE0F906E
:100720001F9018951F920F920FB60F9211242F93BE
:100730008F939F93EF93FF93E0915801F0915901AC
:100740008081E0915E01F0915F0182FD1BC090818C
:10075000809161018F5F8F7320916201821741F058
:10076000E0916101F0E0E85BFE4F958F80936101BD
:10077000FF91EF919F918F912F910F900FBE0F904E
:100780001F9018958081F4CF1F920F920FB60F9291
:1007900011242F933F938F939F93AF93BF93809197
:1007A0003F0190914001A0914101B09142013091EF
:1007B0003E0123E0230F2D3758F50196A11DB11DF1
:1007C00020933E0180933F0190934001A09341010B
:1007D000B09342018091430190914401A091450161
:1007E000B09146010196A11DB11D809343019093E4
:1007F0004401A0934501B0934601BF91AF919F91F1
:100800008F913F912F910F900FBE0F901F901895D1
:1008100026E8230F0296A11DB11DD2CFE8E4F1E036
:100820001382128288EE93E0A0E0B0E08483958387
:10083000A683B7838AE091E09183808385EC90E082
:100840009587848784EC90E09787868780EC90E09A
:10085000918B808B81EC90E0938B828B82EC90E08B
:10086000958B848B86EC90E0978B868B118E128E05
:10087000138E148EE5EEF1E0138212828CE191E08A
:100880009183808387E084838FEF858388E08683EC
:1008900089E087838AE080878BE081878CE082878C
:1008A0001386148615861686178681E00C94C4027A
:1008B000789484B5826084BD84B5816084BD85B53B
:1008C000826085BD85B5816085BD80916E00816047
:1008D00080936E00109281008091810082608093ED
:1008E00081008091810081608093810080918000EF
:1008F0008160809380008091B10084608093B1001A
:100900008091B00081608093B00080917A00846013
:1009100080937A0080917A00826080937A0080913F
:100920007A00816080937A0080917A008068809359
:100930007A001092C10082E00E94C402E091580146
:10094000F091590182E08083E0915401F0915501CA
:100950001082E0915601F09157018FEC8083109244
:100960006001E0915C01F0915D0186E08083E0919F
:100970005A01F0915B01808180618083E0915A018E
:10098000F0915B01808188608083E0915A01F09151
:100990005B01808180688083E0915A01F0915B0166
:1009A00080818F7D80832BE3222E2FE1322E30E059
:1009B000832E30E0932E67E170E090E080E00E94AB
:1009C000D106EC01B12CA12C009741F0188264E211
:1009D00071E00E94970796E1A92EB12CE1E0809189
:1009E000F8018111E0E0E195F0E0EB51FE4F8489E0
:1009F000815F80680E94BE028091F601982F91600D
:100A00009093F60185600E94BE0210E000E00A1596
:100A10001B0509F445C0FE01E00FF11F209721F4EA
:100A200010924701E7E4F1E0F0806F2D88E491E057
:100A30000E94460142E050E06BE371E088E491E0FF
:100A40000E94A60041E06F2D85EE91E00E946B02AE
:100A50000E94FF012B013C018CE2C82EDD24D394BF
:100A6000E12CF12C0E94FF01641975098609970990
:100A7000683E734081059105A8F321E0C21AD108B0
:100A8000E108F10888EE480E83E0581E611C711CD5
:100A9000C114D104E104F10429F70F5F1F4FB7CF50
:100AA0008091F6018E7F8093F60184600E94BE02E1
:100AB00081E00E94BE02C1010197F1F7209719F071
:100AC000CE010E9448068114910409F474CF0E945B
:100AD0001001882309F46FCF0E9400006CCF2F9281
:100AE0003F924F925F926F927F928F929F92AF92BE
:100AF000BF92CF92DF92EF92FF920F931F93CF930B
:100B0000DF93CDB7DEB7CA1BDB0B0FB6F894DEBFA1
:100B10000FBECDBF09942A88398848885F846E84C7
:100B20007D848C849B84AA84B984C884DF80EE8011
:100B3000FD800C811B81AA81B981CE0FD11D0FB61A
:100B4000F894DEBF0FBECDBFED010895EE0FFF1F7D
:100B50000590F491E02D09940F931F93CF93DF93A9
:100B60008230910510F482E090E0E091FF01F09175
:100B7000000230E020E0B0E0A0E0309799F42115C9
:100B8000310509F44AC0281B390B24303105D8F54A
:100B90008A819B816115710589F1FB0193838283B1
:100BA000FE0111C04081518102811381481759070C
:100BB000E0F04817590799F4109761F012960C93DA
:100BC000129713961C933296CF01DF91CF911F910C
:100BD0000F9108950093FF0110930002F4CF2115A7
:100BE000310551F04217530738F0A901DB019A0192
:100BF000BD01DF01F801C1CFEF01F9CF90930002F1
:100C00008093FF01CDCFFE01E20FF31F81939193FB
:100C10002250310939832883D7CF2091FD013091AB
:100C2000FE01232B41F42091020130910301309306
:100C3000FE012093FD012091000130910101211559
:100C4000310541F42DB73EB74091040150910501A3
:100C5000241B350BE091FD01F091FE01E217F30733
:100C6000A0F42E1B3F0B2817390778F0AC014E5F1C
:100C70005F4F2417350748F04E0F5F1F5093FE015A
:100C80004093FD01819391939FCFF0E0E0E09CCFF2
:100C9000CF93DF930097E9F0FC0132971382128221
:100CA000A091FF01B0910002ED0130E020E010972B
:100CB000A1F420813181820F931F2091FD01309199
:100CC000FE012817390709F061C0F093FE01E09397
:100CD000FD01DF91CF910895EA01CE17DF07E8F516
:100CE0004A815B819E0141155105B1F7E901FB8302
:100CF000EA8349915991C40FD51FEC17FD0761F4A0
:100D0000808191810296840F951FE90199838883E0
:100D1000828193819B838A83F0E0E0E012968D913B
:100D20009C9113970097B9F52D913C911197CD01A6
:100D30000296820F931F2091FD013091FE0128172A
:100D4000390739F6309751F5109200021092FF01E1
:100D5000B093FE01A093FD01BCCFD383C283408139
:100D60005181840F951FC817D90761F44E5F5F4FFB
:100D700088819981480F591F518340838A819B81C3
:100D8000938382832115310509F0B0CFF0930002DF
:100D9000E093FF019ECFFD01DC01C0CF13821282E0
:100DA000D7CFB0E0A0E0E7EDF6E00C9471058C0140
:100DB000009751F4CB010E94AC058C01C801CDB75E
:100DC000DEB7E0E10C948D05FC01E60FF71F9C01F6
:100DD00022503109E217F30708F49DC0D901CD91E3
:100DE000DC911197C617D70798F0C530D10530F3BD
:100DF000CE0104978617970708F3C61BD70B2297D7
:100E0000C193D1936D937C93CF010E944806D6CFB6
:100E10005B01AC1ABD0A4C018C0E9D1EA091FF0116
:100E2000B0910002512C412CF12CE12C109731F59E
:100E30008091FD019091FE018815990509F05CC033
:100E40004616570608F058C08091000190910101A4
:100E5000009741F48DB79EB7409104015091050170
:100E6000841B950BE817F90708F055C0F093FE01B5
:100E7000E093FD01F90171836083A0CF8D919C9176
:100E8000119712966C90129713967C901397A81551
:100E9000B90559F56C0142E0C40ED11CCA14DB043B
:100EA00020F1AC014A195B09DA011296159780F01E
:100EB0006282738251834083D9016D937C93E114E4
:100EC000F10471F0D7011396FC93EE93129776CF4D
:100ED00022968C0F9D1FF90191838083F301EFCF40
:100EE000F0930002E093FF0169CF4816590608F419
:100EF0002C017D01D3019ACFCB010E94AC057C016E
:100F0000009749F0AE01B8010E948E07C8010E9407
:100F10004806870153CF10E000E050CFFB01DC0111
:100F200002C001900D9241505040D8F70895FB0146
:100F3000DC0101900D920020E1F70895F894FFCFB5
:100F4000000001028000000000004601A600D3005E
:100F500093010401E200F600000000006603A60011
:100F60002502240253657474696E672075702064CD
:0E0F700065766963652E2E2E2E2E000D0A006A
:00000001FF
